:020000041000EA
:1000000000B5324B212058609868022188439860DF
:10001000D860186158612E4B002199600221596106
:100020000121F02299502B49196001219960352056
:1000300000F044F80222904214D00621196600F024
:1000400034F8196E01211966002018661A6600F04E
:100050002CF8196E196E196E052000F02FF8012189
:100060000842F9D1002199601B49196000215960AB
:100070001A491B48016001219960EB211966A021F2
:10008000196600F012F800219960164914480160C1
:100090000121996001BC002800D000471248134993
:1000A000086003C880F30888084703B5996A0420EC
:1000B0000142FBD001200142F8D103BD02B5186610
:1000C0001866FFF7F2FF186E186E02BD00000240BE
:1000D000000000180000070000035F00212200005C
:1000E000F4000018222000A00001001008ED00E03C
:1000F00000000000000000000000000074B24E7A12
:1001000000200420F7010010C3010010C5010010F9
:10011000C1010010C1010010C1010010C101001097
:10012000C1010010C1010010C1010010C701001081
:10013000C1010010C1010010C9010010CB01001065
:10014000CD010010CD010010CD010010CD01001037
:10015000CD010010CD010010CD010010CD01001027
:10016000CD010010CD010010CD010010CD01001017
:10017000CD010010CD010010CD010010CD01001007
:10018000CD010010CD010010CD010010CD010010F7
:10019000CD010010CD010010CD010010CD010010E7
:1001A000CD010010CD010010CD010010CD010010D7
:1001B000CD010010CD010010CD010010CD010010C7
:1001C00000BE00BE00BE00BE00BE00BEEFF3058054
:1001D000103800BEF2EB88711CE406103CE40610F7
:1001E0003402001090A31AE700201F49086006C8D7
:1001F00081F3088810471D48006800282FD10DA4FE
:100200000ECC002902D000F012F8F9E71849194A7B
:10021000002000E001C19142FCD1174988471749ED
:1002200088471749884700BEFDE701C901C29A42C5
:10023000FBD370473CE40610C00000200C150020E2
:1002400088F80610000004200000042088F806103A
:10025000001004200010042000000000704709482E
:1002600005F070F90047000008ED00E0000000D044
:1002700010150020948A012051410010090300103C
:10028000114100105756000006005250ABB36053A6
:10029000E880021006005250861C0302F88002100B
:1002A000060052505422A29D0481021005005250B3
:1002B000DE65F46888F80610F8B5C04606480749B8
:1002C000091A8B10C90FC91810B5491003D0044B77
:1002D000002B00D0984710BD0C1500200C150020F5
:1002E00000000000054B10B5002B03D00449054861
:1002F00000E000BFFFF7E2FF10BDC04600000000B5
:100300006C7C01209072021010B506F0EFFD00F039
:100310002BF8041E05D100F027FF12F02BF8200067
:1003200010BD01246442FAE700B583B0042802D16D
:100330001378602B01D003B000BD9378022BFAD163
:10034000684614F069FD684612F012FA0100024B8B
:10035000180006F0BFFDEEE79072021010B5002104
:10036000002000F069F910BD10B520F08BFE041ECE
:1003700008D10748074B436014F0FAFBFFF7EEFF84
:10038000200010BD044806F075FD01246442F7E723
:10039000445F012029030010B0720210F0B5CE4670
:1003A000474680B5204CA5448146204B1B68002B56
:1003B0000DD1FA218900484611F06CFF484611F032
:1003C00085FF1B4B9D44C0BCB946B046F0BD1948E3
:1003D00006F050FD184C22000021684606F05EFB36
:1003E0002100684600F0EEFA684625F08FFF80464F
:1003F000070000250FE029006944104E220030005C
:1004000025F0EEFE002333550D4B1C600D4B188874
:100410000BF024FA2D19BD42CBDA43465C1B142C99
:10042000E9DD1424E7E7C04674ECFFFF487C0120B7
:100430008C130000D072021088130000D44D0020ED
:10044000F44D0020528A012070B5040004A820C891
:100450000688032A0ED009290ED00A2914D10021BA
:10046000280011F0FFFF0138434258410B4B186040
:100470000B4B1C80002070BD0A4806F02BFD31009C
:10048000280012F0E3F8F5E70748210006F022FD06
:100490003100280012F0DAF8ECE7C046487C012071
:1004A000528A0120E47202100473021010B582B067
:1004B00004A80488092902D0002002B010BD034915
:1004C0000988034800940AF08FF9F6E7F44D0020FC
:1004D000D44D002070B582B015001E00042807D04E
:1004E000072800D087E0454806F0F4FC00247DE0B2
:1004F0001378812B6FD01CD8332B39D010D8052B13
:1005000043D0162B77D13E4806F0B4FCA81C062237
:10051000694611F0FAFF3B49684618F07BF86AE03B
:10052000802B68D1917800293CD0374806F0D2FC66
:1005300061E0892B47D0B72B2BD0822B5BD1901C4D
:100540000622694611F0E1FF2E7A0921280011F0F8
:1005500089FF2E4C2080684612F00AF902002C4BCD
:100560003100180006F0B6FC20881FF089F842E040
:100570000821100011F07DFF0100264B180006F045
:10058000A9FC254806F076FC35E0244B00221A60D1
:1005900031E0234B1B88234A2349088809210BF0AB
:1005A00069F928E00C21100011F05CFF174C208045
:1005B0000E21280011F056FF020021881B4B180065
:1005C00006F088FC17E0164B1A8816490F4B18885E
:1005D0001FF006F80FE0164806F04CFC0B4B00220B
:1005E0001A8008E0285D06F0DFFB0134A642F9DC42
:1005F000104806F03FFC02B070BDC046787402108F
:100600003C7302105C730210E8730210608A0120D0
:10061000C473021064730210A0730210487C01209E
:10062000F44D0020D44D0020528A01201474021091
:10063000607402108074021030B587B01AF0BEFCEE
:100640001EF05EFF2B4C2C4A012120001FF00EF8FB
:100650001FF0CEF8294D96220021280006F01EFA40
:10066000274B01222749280020F040F828001FF0DE
:10067000EDF8254817F0C2FE012014F0D9FD012045
:1006800017F004FE0DF036FC204A214921480BF0FA
:1006900099F82148446014F06BFA20000BF0BEF882
:1006A00004AC06220021200006F0F8F90023029392
:1006B00007330193009400230022302130200EF0F4
:1006C00057FD1649164B187817F0AEFE012017F0AB
:1006D00003FF144C144BA360FA218900200011F091
:1006E000D9FD200011F0F2FD012017F03FFD0020A0
:1006F00007B030BDD5040010FFFF00006487012063
:10070000847402100100010090740210490400106A
:10071000AD0400109CFA02104C5F012088FA021010
:10072000780E0020286E01209D030010054B1B68E9
:10073000DB05FBD501E0034BDB68024B9B68DB0567
:10074000F9D5704700C0044010B504001F2101F026
:100750002DFD00220021200001F040FD002120009D
:1007600001F0E8FD10BD000010B50C2906D80368A3
:10077000054A1340C9020B43036010BD034B044AF2
:100780000448C32103F0C8FCFF87FFFFAC740210CC
:1007900050FB0210CC74021000B583B0010000239E
:1007A000019310330193134B019301A8FFF7DCFF72
:1007B000019B0C22190091430A0008210A4301926F
:1007C0000D4A1A400A4301920C4A1A400A43019208
:1007D0000B4A1A401143019109210A430192094A27
:1007E0001A400A430192084818400843019003B098
:1007F00000BDC04610801F0033F8FFFF33F8BFFF75
:1008000033F89FFF33F81FFF31F81FFFF0B58BB0AF
:1008100004000F0016001D001422002105A806F098
:100820003DF9280025F072FD28182349092206F019
:100830003BF92249220005A804F03CFE05A9280046
:1008400025F06EFC280025F061FD28181C490322C4
:1008500006F02AF9280025F059FD281819490A221E
:1008600006F022F900240AE06300DA5F13496846C3
:1008700004F020FE6946280025F052FC0134B44201
:100880000FDA14220021684606F008F9002CEBD09C
:10089000280025F03BFD28180B49022206F004F938
:1008A000E2E7280025F032FD28180849032206F067
:1008B000FBF80BB0F0BDC0461875021084A40210FE
:1008C000247502102875021034750210507502103C
:1008D000F8B5CE46474680B5814625F07BF905211F
:1008E00004F05CFE481C05F055F904000D002820BA
:1008F00006F0BEF8804600261AE0300005F04AF9FE
:100900000022104B05F0B7F80F4A104B05F0CDF858
:1009100005F0B8F922002B0005F0C7F800220C4BB7
:1009200005F0C3F87700474405F04CF938800136EC
:10093000132EE2DD14234A4613604046C0BCB9467C
:10094000B046F8BD0030C140C1966AFC3399A5405D
:100950000000594010B50400FFF7E8FE0821134BD2
:100960001960134A13689B01A020C00584466344A4
:10097000104818605C601048986010480068D860A3
:10098000D0231B068020800458610D4B196012682B
:100990009301A021C9058C4663441B69DB01F7D490
:1009A000D0231B06802292049A6110BD00F00440FF
:1009B000645700200CC00440881300009C4D0020A8
:1009C00000E00440F0B5DE4657464E464546E0B5E9
:1009D000CB4CA54481468A46CA4BCB4A1A60CB4BC6
:1009E000CB4A1A60CB4BC022D2011A61CA48FFF72A
:1009F000B1FF002205E0C84B5000C15A0909C1529D
:100A00000132C64B9A42F6DDC54B0020002118602A
:100A10005960C44B00221A60C34B1A6000230BE0DC
:100A2000BD4A5900545A0025BD4A10685168001942
:100A30006941106051600133B84A9342F0DDB84B10
:100A40001868596805F0AAFFB84905F0F4FE834616
:100A5000B54B186000261EE0B24F386805F0A8FFBD
:100A600004000D00AC4B7200D05A05F03FFF594610
:100A700005F0DBFE05F09CFF00228023DB0505F07E
:100A80002FFD02000B002000290004F0EFFF05F00D
:100A9000CDF838600136A14B9E42DDDDA14BA34964
:100AA000186805F0C8FEA24B186005F081FF05F03C
:100AB000C5F805F0BBF89F4B186000245D460BE0BD
:100AC000954B6200D05A05F00CFF291C05F0ADFED5
:100AD000994BA20098500134904B9C42F0DD974A0C
:100AE0009549974B186800F0F7FB964B00221A6067
:100AF000954B00221A60002500E00135934B9D4282
:100B00001DDC8E4CEF003859011C05F0A8FE061CB8
:100B1000E4196068011C05F0A2FE011C301C05F000
:100B200087FE041C8A4B1860864B196805F0D4FEBA
:100B30000028E2D0834B1C60834B1D60DDE7714BC6
:100B40007A49186805F077FE041C7F4B186805F099
:100B5000CDFE211C05F083FE041C7E4B18607E49EF
:100B600005F0B2FE002801D00024EFE1201C05F0C2
:100B70001FFF0022794B04F098FF02000B000020B9
:100B8000774904F078FF05F051F8041C5F4B1860BA
:100B9000011C744805F04FFE5A4B18608721C905A7
:100BA000201C05F05CFE05F0F1FE5A4B18615A4816
:100BB000FFF7D0FE0022594B9A4206DC564B5000FC
:100BC000C15A0909C1520132F5E7554B00200021F5
:100BD00018605960534B00221A60534B1A6000236F
:100BE0004E4A93420CDC4C4A5C00105B00214C4A9C
:100BF0001468556824184D41146055600133EFE7BF
:100C0000474B1868596805F0C9FE484905F013FEBE
:100C10008046454B18600026404B9E421FDC414FEA
:100C2000386805F0C5FE04000D003B4B7200D05A39
:100C300005F05CFE414605F0F8FD05F0B9FE002226
:100C40008023DB0505F04CFC02000B00200029008E
:100C500004F00CFF04F0EAFF38600136DCE7314BAA
:100C60003249186805F0E7FD314B186005F0A0FE29
:100C700004F0E4FF04F0DAFF2E4B18600024454630
:100C8000264B9C420CDC244B6200D05A05F029FE16
:100C9000291C05F0CAFD284BA20098500134EFE74B
:100CA000264A2549264B186800F016FB254B0022E2
:100CB0001A60254B00221A60002500E00135234B05
:100CC0009D4251DC1D4CEF003859011C05F0C7FD59
:100CD000061CE4196068011C05F0C1FD011C301CF4
:100CE00005F0A6FD041C1A4B1860164B196805F098
:100CF000F3FD0028E2D0134B1C60134B1D60DDE7B1
:100D00000CF8FFFF7C0E00200024F448800E002029
:100D10000000C04200C004408C2600208713000061
:100D2000801600201C8801200020002000409C45E7
:100D3000848901200088012084570020A4A5002078
:100D4000A07801205C7C0120547C0120C3090000B4
:100D50009C7C0120507C01200050C34600003440A0
:100D600060E38641001B374CB34BB449186805F06B
:100D700062FD041CB24B186805F0B8FD211C05F09B
:100D80006EFDB04B1860B04905F098FD002805D005
:100D9000AE4BAF4A1A60A84BAE4A1A60AB4B18680C
:100DA0008721C90505F05BFD05F0F0FDAA4B186130
:100DB000AA48FFF7CFFD0022A94B9A4206DCA74BB9
:100DC0005000C15A0909C1520132F5E7A54B002074
:100DD000002118605960A44B00221A60A34B1A60CE
:100DE00000229F4B9A420CDC9C4B5400185B002164
:100DF0009C4B1C685D6824184D411C605D6001328D
:100E0000EFE7984B1868596805F0C8FD8B4905F065
:100E100012FD964B186000268046914B9E421FDCC7
:100E2000914F386805F0C4FD04000D008B4B720033
:100E3000D05A05F05BFD414605F0F7FC05F0B8FD22
:100E400000228023DB0505F04BFB02000B00200095
:100E5000290004F00BFE04F0E9FE38600136DCE7FF
:100E60004746814B7549186805F0E5FC804B1860D2
:100E700005F09EFD04F0E2FE04F0D8FE7D4B186004
:100E80000024774B9C420CDC744B6200D05A05F076
:100E900028FD391C05F0C9FC774BA200985001349D
:100EA000EFE7764A7449764B186800F015FA754BEF
:100EB00000221A60624B00221A60002500E0013512
:100EC000714B9D421DDC6D4CEF003859011C05F043
:100ED000C6FC061CE4196068011C05F0C0FC011C7E
:100EE000301C05F0A5FC041C684B1860654B1968A4
:100EF00005F0F2FC0028E2D0624B1C60504B1D60F4
:100F0000DDE74D4B4D49186805F095FC041C4C4B32
:100F1000186805F0EBFC211C05F0A1FC494B18609A
:100F200022E6651C4D4B6A00D05A801B05F0DEFCA2
:100F3000504B1E68311C05F0C7FC002828D15449CD
:100F4000301C05F0BBFC002822D12C00444B9C42F5
:100F500020DC424D63005E5B444B186805F0E8FC02
:100F6000331ADA179B1853404A4A1360A21C5200E6
:100F7000505B801B484A1060012BD2DC0028D0DD7A
:100F800005F0B4FC3B4B196805F098FC0028C8D06C
:100F9000424B1C602B4B1C68FE218905201C05F070
:100FA0008DFC002840D1244B186805F0C1FC0500D9
:100FB000201C05F0BDFC0100280004F0EFFA384BBE
:100FC000186000244B461C70FA26B600320000213F
:100FD00008A805F063FD32000021FFA80C3005F0E1
:100FE0005DFD079407A8FFF773FC040008AD079A9E
:100FF00000962B0001000120FFF708FC280025F0D7
:1010000085F903000E33274A00955146484604F0FF
:1010100067FA200005F036FD234B9D44F0BCBB462B
:10102000B246A946A046F0BD1C4B1A68FA239B00A5
:101030009B1A1B4A1360C4E77C0E002000409C45AD
:10104000547C0120507C012000004842800E00208A
:1010500000803B4700007A4400C004408C260020FA
:1010600087130000801600201C880120002000202B
:10107000848901200088012084570020A4A5002035
:10108000A07801205C7C0120C30900009C7C012029
:101090000000A0405C57002040860120FC87012012
:1010A0006057002038750210F407000010B505F0F5
:1010B0001DFF192001F056F9D0231B06802292044F
:1010C0005A621A20FFF740FB24F05AFA1D4C23689D
:1010D000E022D20113401C4A13601C4B1A681C4BBF
:1010E00053401C4A13401C4A13601C4B186887214C
:1010F000C90505F0B4FB05F049FC2061FA20800029
:1011000002F0A7FA012023F043FCFFF745FB144B44
:1011100018600C22010091430A0004210A431A605E
:101120001C220400944322002143196024210A4315
:101130001A600C4A104008439022520302431A607E
:1011400010BDC04600C0044000D0044008C00440A8
:10115000090000010F00000F08D00440800E00209D
:101160009C4D0020E37FE0FF10B5002025F068F8DB
:1011700024F026FDFFF79AFF0023002200210348F8
:1011800000F008F8024B186010BDC046881300003C
:10119000A0780120F0B5DE4657464E464546E0B5FC
:1011A00085B08A4616001F0001231C00044003423C
:1011B00029D1451003AB0022280000F053FF6B003B
:1011C0005B19D80FC0184010C000039BC0180C302A
:1011D000002F23D03B68834224D33860B046434677
:1011E000002B20D042460C321A60039BD318414694
:1011F0004B60E9005B1841468B6003AB5146280009
:1012000000F030FF31E02F4B1B68DB682E482422B2
:10121000012124F0F9FE0023984606E005F028FCA1
:101220008046DCE7386000239846404605B0F0BCB5
:10123000BB46B246A946A046F0BD3000390004F0D6
:101240000FFD43469B68E20093465B441C0004F09C
:10125000EDFC20603000390004F014FD43469C682A
:101260005C4404F0E3FC60604C46EB0F5B195B10E0
:10127000A342DADD631C9946180004F08BFC0600DB
:101280000F00280004F086FC02000B00300039003B
:1012900004F0F1FB00220D4B04F0E8FB0C4A0D4B6F
:1012A00004F003FC06000F005346002BC5D000904D
:1012B0000B0080221206944663440193009E019F16
:1012C000BBE7C046B8130020547502100000E03F91
:1012D000182D4454FB2109C0F0B5DE4657464E4652
:1012E0004546E0B593B08146019200684368002B03
:1012F0001FD1046800944B465A6800F052FF4B46D9
:101300005B681D6806955E680796311C281C05F011
:101310008FFA019F3860E400BC466444311C281CED
:1013200005F083FA206000237B60636001231C00CA
:1013300096E0534B1B68DB6852482522012124F0BC
:1013400063FE012002F0E4FE4B465B68E20002927D
:101350009A180EAD290041CA41C100990A1BD60056
:101360000396B44663441F6810975E6880200006A9
:10137000331811930E988046011C381C05F058FA5A
:1013800004900C900F9DAA46311C281C05F04DFAC4
:10139000051C0D90391C404605F047FA80460A901E
:1013A0005146301C05F044FA071C0B904B469E68D2
:1013B000354BE318DB00F61833689A46191C404693
:1013C00005F04DFA059073689B46191C381C05F012
:1013D00046FA011C059805F028FA061C08905946A3
:1013E000404605F03CFA80465146381C05F037FA75
:1013F000011C404605F01CFA071C0990311C049B97
:101400009A46181C05F014FA029B019A944663440C
:101410009846FC21890505F022FA43461860291CEC
:10142000381C05F005FAFC21890505F018FA434639
:101430005860311C504605F0F8F9039E019A944615
:101440006644FC21890505F00AFA3060291C381C25
:1014500005F0EBF9FC21890505F001FA7060013413
:10146000009AD30F944663445B10A34200DB6BE702
:1014700013B0F0BCBB46B246A946A046F0BDC0467C
:10148000B81300207C750210FFFFFF1FF0B5DE4689
:1014900057464E464546E0B585B004000191994651
:1014A0000932FF321700DD0045192B689A463B6868
:1014B0009846191C504605F0D2F9061C6B687A68EC
:1014C0009346111C0093181C05F0C9F9011C301C2F
:1014D00005F0ABF9061C02905946504605F0BFF9DD
:1014E00082460099404605F0BAF9011C504605F0C5
:1014F0009FF980460390019BDB00FF182068311C98
:1015000005F093F928606068414605F08EF968603F
:101510002168301C05F08CF920606168404605F0B8
:1015200087F960600835083401235B429C46E1443A
:101530004B46002BB9D105B0F0BCBB46B246A9461C
:10154000A046F0BDF0B5DE4657464E464546E0B5EE
:101550009BB00C910D920293842149008C46624409
:10156000934607930092019204001FE04146089BB6
:101570009946181C05F059F952461060391C099E0D
:10158000301C05F055F9524650604146484605F07A
:101590004FF92860391C301C05F047F968600834A1
:1015A000079B013B0793002B00D1F5E0029BDB007A
:1015B0009A46A244524617685A461568291C381C98
:1015C00005F04DF98146524656685A465268904693
:1015D000111C301C05F043F9011C484605F025F9A3
:1015E00003900E904146381C05F039F9071C311C58
:1015F000281C05F034F9011C381C05F019F90A9073
:101600000F90029B1E01A61930688046019A15684A
:10161000291C05F024F904907768019A51688946DD
:10162000381C05F01CF9011C049805F0FEF8049024
:1016300010904946404605F012F98046391C281C96
:1016400005F00DF9011C404605F0F2F805901190E7
:10165000029B5D009C466544ED0065192F68009B68
:10166000196888460697381C05F0F9F8071C696860
:101670008946009B59680891484605F0F0F8011C1E
:10168000381C05F0D2F8071C12900899069805F04E
:10169000E6F806904946404605F0E1F8011C069838
:1016A00005F0C6F80690139020688046049905F06E
:1016B000BCF80890189060688146059905F0B5F867
:1016C000099019904146049805F0B2F80B902060FB
:1016D0004946059805F0ACF86060391C039805F0A0
:1016E000A7F80490149006990A9A9046101C05F0E9
:1016F0009FF881461590391C039805F096F8071C51
:1017000016900699404605F090F880461790049987
:101710000B9805F08AF830606068494605F085F856
:1017200070600C9AD3009B441301019EB4469C4404
:1017300066460196530094466344DB00009A944643
:101740009C44624600922168049805F071F820607C
:101750006168484605F06CF860600D9A5368002B8C
:1017600000D003E74146089B9946181C05F060F835
:1017700053461860391C099E301C05F056F8534634
:1017800058604146484605F050F82860391C301C26
:1017900005F04EF8686002E71BB0F0BCBB46B246ED
:1017A000A946A046F0BD0000F0B5DE4657464E46BD
:1017B0004546E0B595B007000791180005930B006A
:1017C000434308A92133DB00D31830CB30C1842335
:1017D0005B009A469244D3460490D046059BDC00B9
:1017E0003C19226891465A461668311C484605F055
:1017F00036F8051C6268594649688A460092101CF2
:1018000005F02DF8011C281C05F00FF8051C0C90A4
:101810005146484605F023F881460099301C05F0F2
:101820001EF8011C484605F003F800900D90059B3A
:101830001B019A46BA4453461B6841460968039106
:101840000293181C05F00BF8061C53465B6899467A
:1018500043465B680693191C484605F000F8011CD6
:10186000301C04F0E2FF061C0E900699029804F06A
:10187000F6FF02904946039804F0F1FF011C02981C
:1018800004F0D6FF81460F90311C281C04F0D0FFD5
:10189000029010904946009804F0CAFF03901190FE
:1018A000311C281C04F0C1FF051C0A904946009811
:1018B00004F0BBFF81460B90079AD3009B441301B1
:1018C0009844386805F074F800900191029805F08A
:1018D0006FF800222D4B04F0E8F802000B0000988E
:1018E000019904F0BEF804F0A1F92060786805F0D1
:1018F0005FF800900191039805F05AF80022234BFD
:1019000004F0D3F802000B000098019904F0A9F844
:1019100004F08CF96060099E311C281C04F09FFFC4
:10192000051C0A90311C484604F099FF061C0B90D8
:101930003968029804F07CFF38607968039804F0F5
:1019400077FF78602168301C04F072FF53461860FE
:101950006068291C04F069FF534658602068311CF8
:1019600004F063FF20606168281C04F061FF606080
:101970000837049B013B0493002B00D02EE715B0E1
:10198000F0BCBB46B246A946A046F0BD0000E03F11
:10199000F0B5DE4657464E464546E0B5B3B0804604
:1019A00013910932FF325943C800101816ACC0C851
:1019B000C0C40901511814A860C960C0D9004144CD
:1019C00000911901414403915900C918C9004144CB
:1019D0008B46590141448A460021029151460191AA
:1019E000049247461293DEE118AC20003B0006CB80
:1019F00006C01193009B1A689046139D029A5543A6
:101A0000EB00049A9146994449460E68311C4046C1
:101A100004F025FF0590009B59688A4649464968AD
:101A20008946504604F01BFF011C059804F0FDFE9A
:101A30000590A0604946404604F011FF804651469B
:101A4000301C04F00CFF011C404604F0F1FE06902F
:101A5000E060039A1668B0462B01049989469944C0
:101A60004E463668311C404604F0F9FE0790039A52
:101A700051688A46494649688946504604F0EFFE57
:101A8000011C079804F0D1FE0790206149464046AA
:101A900004F0E5FE80465146301C04F0E0FE011CD7
:101AA000404604F0C5FE0A9060615E463668B14665
:101AB0006B005B19DB00049882469A4451460E681D
:101AC000311C484604F0CBFE0890594649688846C8
:101AD000514649688A46404604F0C1FE011C0898F8
:101AE00004F0A3FE0B90A0615146484604F0B7FEF7
:101AF00081464146301C04F0B2FE011C484604F009
:101B000097FE061CE06101990B6898466D010498E8
:101B10008246554428688146011C181C04F09FFE2B
:101B2000089001994B689A466D68291C181C04F0AE
:101B300096FE011C089804F078FE08902062291C8B
:101B4000404604F08CFE051C5146484604F087FED2
:101B5000011C281C04F06CFE051C6062089A90466B
:101B6000111C059A9246101C04F062FE0590A063B9
:101B7000291C0698814604F05BFE0690E06341460E
:101B8000504604F052FE08902065291C484604F097
:101B90004CFE099060650B9B9946191C079B984663
:101BA000181C04F045FE051C2064311C0A9B9A4653
:101BB000181C04F03DFE079060644946404604F05E
:101BC00034FE0B90A064311C504604F02EFE0C90A5
:101BD000E0643E680A95291C059A9046101C04F0A2
:101BE00027FE011C301C04F023FE38607D68079B33
:101BF0009946191C069804F01BFE011CAA46281CD5
:101C000004F016FE7860169F391C404604F027FE4B
:101C1000011C0F96301C04F00BFE051C149EB046F0
:101C2000311C0A9804F01BFE011C281C04F000FE65
:101C30000D90A062391C069804F011FE011C554657
:101C40001095504604F0F4FD051C311C484604F084
:101C500006FE011C281C04F0EBFD051CE062179E2B
:101C6000B146311C099804F0FAFD061C15998A4604
:101C70000C9804F0F4FD011C301C04F0D9FD0E900A
:101C800020634946089804F0EAFD802109064618B9
:101C900051460B9804F0E3FD011C301C04F0C5FD17
:101CA000061C60630E990D9804F0BFFD009B186040
:101CB000311C281C04F0B9FD009B58600E990D984A
:101CC00004F0B6FD01990860311C281C04F0B0FD39
:101CD000019948604146059804F0C1FD011C0F9828
:101CE00004F0A6FD051C391C0A9804F0B8FD011C7F
:101CF000281C04F09DFD051CA0654146069804F0D3
:101D0000AEFD011C109804F093FD061C391C0798C9
:101D100004F0A5FD011C301C04F08AFD061CE065E2
:101D200049460C9804F09BFD071C5146099804F0A5
:101D300096FD011C381C04F078FD071C20665146F6
:101D4000089804F08CFD804649460B9804F087FD06
:101D5000011C404604F069FD80466066391C281C61
:101D600004F066FD039C20604146301C04F060FDD9
:101D70006060391C281C04F058FD5D46286041460F
:101D8000301C04F052FD6860119F009B08330093E3
:101D90000834039408239C46E344019908310191D7
:101DA000029A531C0293029B129A934200DA1BE69A
:101DB00033B0F0BCBB46B246A946A046F0BDF0B574
:101DC000C64600B50400884603F0E4FE03F036FF83
:101DD00004F0F6FA06000F00042514E0022D0DD0E1
:101DE000042D0DD00235280003F0D4FE32003B0054
:101DF00003F0B8FE002806D0250004E00325F2E732
:101E00000225F0E798462900200003F0C7FB0029CF
:101E1000E4D12900200003F0C1FB040043461D600B
:101E20000833424650600128ECDC80BCB846F0BD67
:101E3000F0B5DE4657464E464546E0B58FB0804683
:101E400006919A4684235B009C469444634604931F
:101E500013680593189BD80004F00AFE0026B146CB
:101E6000029043460A93534676E0EA004244E1007A
:101E70006144C0CAC0C1ED1801348442F5DB0025BD
:101E80004A460B920892079509934EE0FB00029A8E
:101E9000914699444B461B689A46E500049B9C4634
:101EA00065442B689846191C504604F0D8FC0190F4
:101EB0004B465B6899466B689B46191C484604F084
:101EC000CEFC011C019804F0B0FC051C0C90594696
:101ED000504604F0C4FC82464946404604F0BFFC2C
:101EE000011C504604F0A4FC80460D903168281C6B
:101EF00004F09EFC30607168404604F099FC70600C
:101F00000137189B9F4208DA069B039A5343E41853
:101F1000059BA342BADCE41AB8E7089B099A9446E9
:101F200063440893079B01330793079B189A9342D6
:101F30000CDA089B0393DE000A9B9C466644330040
:101F4000029A03CA03C300240127DAE70B9B9946D0
:101F5000099B01229446E144994507DA4D46002445
:101F6000029A94460A9A9046189886E7029B1800AF
:101F700004F088FD0FB0F0BCBB46B246A946A046AF
:101F8000F0BDF0B5DE4657464E464546E0B585B055
:101F90000C00170098460E9B196808229146994438
:101FA0005B681E004E43F6008619012B1ED005000B
:101FB000CB469946B2460390464688460F9B01930E
:101FC0005B460093330042467A4321002800FFF726
:101FD000D8FF3B007343DB00E4184B46DB00ED18F1
:101FE000AA45EBD141464B46039811E005008C46CB
:101FF0008146414698463300220041CA41C53A0015
:102000004A43D200A418AB42F6D161464346484643
:1020100004291BD008DC02290DD003291BD10F9AFB
:102020003900FFF7C1FB0AE0052914D10F9A3900E6
:10203000FFF7AEFC03E00F9A3900FFF727FA05B06F
:10204000F0BCBB46B246A946A046F0BD0F9A390087
:10205000FFF778FAF3E700910F9A3900FFF7E8FEEF
:10206000EDE70000F0B5CE46474680B583B00700E7
:102070000C002130C000002B0DD0002A0FD01968B1
:1020800081420FD318601600002E50D03760746064
:102090000023994623E004F0EBFC0600F4E7186007
:1020A000160044E01860002641E02000290003F0FB
:1020B000D7FD33000933FF334A46D2009846904497
:1020C00003F0B4FD434618602000290003F0DAFD58
:1020D00003F0ACFD4346586001239C46E144B945FA
:1020E00020DA484603F056FD144A154B03F0DDFC98
:1020F00004000D00380003F04DFD02000B0020002D
:10210000290003F0B8FC04000D007368002BCCD04C
:1021100000900B0080221206944663440193009CB9
:10212000019DC2E7310008313800FFF748FE30005A
:1021300003B0C0BCB946B046F0BDC046182D4454EB
:10214000FB2119C0F0B5C64600B582B004000F00EF
:1021500015001E0091420CD003000833019000933B
:10216000330001222800FFF70CFF02B080BCB84604
:10217000F0BD0068C00004F07BFC804623000833FB
:1021800001940093330001223900FFF7FAFE226820
:10219000D2004146280004F087FC404604F072FC5F
:1021A000E3E710B50123FFF7CDFF10BD10B58300A5
:1021B000084A944663441A684024624080341440BC
:1021C0008022520113431C60C000034B9C466044B4
:1021D000416010BD04C001400040014080000B4B35
:1021E0009C46604400290DD00823002A0CD004220C
:1021F0001343026853400C221A4080235B010343BF
:102200001A6070470023F0E70022F1E704C00140A4
:10221000002909D08000094B9C46604480239B0123
:10222000034302221A6070478000044B9C466044BE
:10223000C0239B01034302221A60F4E704C001405B
:1022400070B5D0231B061B68094C9D002C592042F9
:1022500007D1074D9B0004435C510D2000F024FA88
:1022600070BD044B044A0548CC2101F055FFC0461F
:10227000A07C0120A475021090FB0210D075021002
:1022800010B50400D0231B061A680B4B9200D358DC
:1022900018420BD00D2000F00FFBD0231B061B684B
:1022A00005499B005A58A2435A5010BD034B044A9B
:1022B0000448D62101F030FFA07C012010760210E6
:1022C0006CFB0210D0750210072303409B00C0086E
:1022D00099403C308000014BC150704700400140A4
:1022E000F8B507000C0016001D00FFF7EDFFFB0816
:1022F0009B00ED180720384080008440002E04D059
:1023000080239B012B431C60F8BDC0239B012B4302
:102310001C60F9E710B5D0231B061B68002B03D007
:10232000024BFFF7DDFF10BD014BFAE730410140E2
:1023300000410140002909D08000094B9C466044BF
:1023400080239B01034340221A6070478000044BA6
:102350009C466044C0239B01034340221A60F4E77B
:1023600004C0014010B501238340D02212069362BD
:1023700093610521FFF71AFF10BD0000034B1B6896
:1023800002201840431E9841C0B2704700C006406A
:10239000EFF3108072B6034B1B68002BFBD0BFF32A
:1023A0005F8F70472C0100D0BFF35F8F024B00227C
:1023B0001A6080F3108870472C0100D0F8B5060031
:1023C0000C001500FFF7E4FFE308F718F15C0722A3
:1023D0002240012393400B4205D1DBB20B433B70FB
:1023E000FFF7E2FFF8BD2100280001F075FFF0B50E
:1023F00083B00600019114001F00FFF7C9FF00E041
:102400000134BC420CD8E308F518F35C07212140E5
:1024100001228A401A42F3D1D2B21A432A7001E053
:1024200001246442FFF7C0FF002C02DB200003B050
:10243000F0BD019B002BF9D0089801F04DFF000082
:1024400070B505000C00FFF7A3FFE308EE18EA5C87
:102450000721214001238B40134204D09A4332705C
:10246000FFF7A2FF70BD034B034A0448332101F07C
:1024700053FEC0463C760210C4FB02105C7602108C
:10248000002307E0054A9A189200BFF35F8F0021EE
:10249000116001331F2BF5D97047C046400000344E
:1024A000054A1078431CDBB21370172B02D91300B6
:1024B00010221A707047C046840E002010B582B0FA
:1024C0000100054C054B00931F2318222000FFF745
:1024D0008EFF02B010BDC046A84D00209C760210B1
:1024E000074B9B68103080001950BFF35F8FBFF31C
:1024F0005F8F044B0021196082F310887047C0463B
:1025000000ED00E0240100D01F23181A70470000DE
:1025100010B50388DA0A1C2A05D15B055B15023366
:102520005B00C01810BD034B034A0448B12101F001
:10253000F3FDC046B876021028FC0210D0760210D7
:1025400010B5091A0B1F0A4A88180A4A904208D87F
:10255000C90706D45B105B055B0D0748184380B2C2
:1025600010BD064B064A0748A32101F0D5FDC04621
:10257000FC070000FE0F000000E0FFFF0C770210D8
:102580001CFC0210D076021010B5091A04394A0852
:10259000090B08D14905490D064B0B430380064B37
:1025A0001343438010BD054B054A0648AB2101F09B
:1025B000B3FDC04600F0FFFF00F8FFFF3C770210BC
:1025C000F0FB0210D076021001238340034A10680A
:1025D0001840431E9841C0B27047C04600E100E079
:1025E000002904D0034B1860034B18607047034B5D
:1025F0001860FBE780E200E000E100E080E100E03D
:1026000010B5012383401800FFF7EAFF10BD00005A
:1026100001238340014A13607047C04600E200E096
:10262000024B9B6810308000C058704700ED00E0FE
:1026300010B5FFF7F5FF002805D0054BC01A2F286D
:1026400003D8012010BD0020FCE70020FAE7C046B7
:10265000880E002070B504000D00EFF3108672B6EE
:102660000C4B1B68002BFBD0BFF35F8F2000FFF7E4
:10267000D7FF094B984201D0A84205D1320029006A
:102680002000FFF72DFF70BD044B054A0548862149
:1026900001F042FD240100D0CD0100104C77021062
:1026A00050FC0210D0760210F0B5DE4657464E467A
:1026B0004546E0B589B0814601911500EFF3108AD7
:1026C00072B66D4B1B68002BFBD0BFF35F8F6B4B5B
:1026D00000269E57002E41DB7400A419A400684810
:1026E00024180622A256654B1A70664B9A684B4610
:1026F00010339B00D35898461F00181A2F2839D939
:10270000614B984530D105AF604B3B806049730009
:102710009B46981980005A4B984640440230FFF778
:102720000FFF78805B4BBB80FF23BB71FD71019B6A
:10273000079333005B449B00434407CF07C3012347
:102740001C43A046524641464846FFF7C9FE09B021
:10275000F0BCBB46B246A946A046F0BD4E4B4F4A20
:102760004F48D72101F0D8FC4E4B4C4A4C48DE2153
:1027700001F0D2FC01380C2102F038FF002912D1FF
:1027800001239F43BB463B000027DA79AA4211D9B7
:102790000621595600290CDB4A005218920038498C
:1027A0001F008B18F1E7404B3C4A3D48EA2101F0FD
:1027B000B3FC1F00002F2ED005AB3C4A1A80813A93
:1027C0005A800623FB560293002B17DA384805ABD4
:1027D0009B469880029A9A71DD71019A0792381D82
:1027E0002100FFF7ADFEB880BE71254B7200921933
:1027F00092009B185A4613CA13C3A3E7381DFFF76C
:1028000087FE01007000801980001D4BC018043045
:10281000FFF796FEDBE705AF1C4B3B801C497300BE
:1028200002939B199B00164A90461A004244039259
:10283000901CFFF785FE7880039A101D5946FFF71C
:102840007FFEB8801B4B5A464146521A52415343B1
:102850001B0DBB71FD71019A0792029B9B199B0096
:10286000434407CF07C3114B5A461380813B538023
:1028700001231C43A04665E7240100D0788A01208B
:10288000880E002000ED00E0CD01001000A1FFFF48
:10289000B80E002001BDFFFF8477021038FC021043
:1028A000D0760210AC770210D477021001480000F5
:1028B00001BD0000AAAA0000F0B5CE46474680B58B
:1028C00083B006000D00EFF3108872B64F4B1B6803
:1028D000002BFBD0BFF35F8F4D4B9A683400103450
:1028E000A300D7584B4B9F4207D0AF4200D18BE09B
:1028F0000197494BFB1A2F2B09D94246390030006A
:10290000FFF7EEFD03B0C0BCB946B046F0BD3000E5
:10291000FFF75AFE814600213000FFF771FEBFF33A
:102920005F8FEFF30581002901D08C4211D1012383
:10293000019C9C430020A368AB4212D00622A25601
:10294000002A0DDB53009B189B00334A2000D4184B
:10295000F1E7324B324A36213248FF3101F0DCFBDD
:102960002000AB4249D106256557002D2BDB2A4BB1
:102970006A00521992009B189A68A260DA79E27193
:102980009B795BB2A371002B0FDA2748A080224B02
:102990006A00521992009B18244A11789971157097
:1029A00049463000FFF72CFEA7E768004019800079
:1029B000194BC0180430FFF7ABFD0100231D1800B0
:1029C000FFF7BEFDE2E7002912D100280ED0FF2359
:1029D0008371174B838015490B78A3710E4A154BF1
:1029E000A41A644163431B0D0B70D9E7094FF2E74A
:1029F0001149201DFFF7C8FDD2E7104B084A6A2194
:102A00000848FF3101F088FB024F76E7240100D02F
:102A100000ED00E0CD010010880E00204878021083
:102A200008FC0210D076021001BD0000788A012057
:102A300001BDFFFFAAAA0000C20E00207C78021090
:102A400010B5032304009C43064A9446644422685C
:102A50001840C000FC3383409A43130081400B436D
:102A6000236010BD00E400E070B5012202432E4B4C
:102A7000D31A2F2B28D8EFF30583002B2BD0EFF39D
:102A8000108C72B6294909680029FBD0BFF35F8F0B
:102A9000254C274905002D1B6D416943090D4CB29A
:102AA000244989689B00C95891421BD00021032901
:102AB00032D81D4B4A00521892009B189B795BB28A
:102AC000A3421FD00131F2E71B4B1C4AC7211C480F
:102AD000490001F021FB1B4B184A92211848FF3195
:102AE00001F01AFB134A92681749D150174B1A7814
:102AF00082711C70BFF35F8F0C4B00221A608CF345
:102B0000108870BD084B4A005518AD005D19FF26AE
:102B1000AE710F4AAA80E9E70E4B084AD121084856
:102B2000490001F0F9FAC046880E0020240100D0C7
:102B3000AAAA000000ED00E084780210D4FB021085
:102B4000D0760210AC780210CD010010788A0120F6
:102B500001BDFFFF9CD202100022044B02E0044999
:102B600002C30132072AFAD97047C04600E400E0E8
:102B70008080808010B5FFF7C7FC0100024B180071
:102B8000FFF75EFC10BDC046908A012010B582B0F0
:102B90000100074C074B0093052300222000FFF79C
:102BA00026FC002801DB1F23181A02B010BDC04606
:102BB000908A0120B878021070B504000E0015004C
:102BC000FFF76EFC0100200000F006F8A680E5800B
:102BD000BFF35F8F70BD0000024B9C4661448900CB
:102BE000016070474000003410B5002B02DB02602A
:102BF000436010BD024B034A03483F2101F08CFAA9
:102C0000D4780210A8FC0210F078021070B582B0DF
:102C1000060014001D00FA229200002306980021ED
:102C200003F0E6FD02000B0012196B41002B09DBDB
:102C30006846FFF7D9FF009A019B3260736030004D
:102C400002B070BD01225242004BF1E7FFFFFF7F4F
:102C500010B582B0040000F08DFD02000B00684644
:102C6000FFF7C2FF009A019B22606360200002B060
:102C700010BD30B585B004000D0002A8FFF7E8FFD5
:102C8000029A039B00952000FFF7C0FF200005B0CB
:102C900030BD10B50400FFF703FC01002000FFF772
:102CA0009BFFFF232371BFF35F8F10BD10B504009E
:102CB000FFF7F6FB01002000FFF78EFFFF232371D3
:102CC00000236371BFF35F8F10BD0000034B9C4670
:102CD000614489000160BFF35F8F7047400000349A
:102CE00010B504000120FFF7E9FB01002000FFF709
:102CF000EDFF10BD084B5B6A994209D8064A926AFB
:102D0000824207D2994201D0012002E0002000E077
:102D1000002070470120FCE70040054010B5002965
:102D20000AD003681B7B8B4206D38068054B9C4608
:102D300061440901401810BD034B044A04483C217A
:102D400001F0EAF9FFFFFF0FC0790210CCFD02107D
:102D5000E4790210F8B504001700FFF7DFFF0668FA
:102D6000456839002000FFF7D9FF02684368012059
:102D7000AB4201D802D00020C0B2F8BDB242FBD8AD
:102D8000F9E7000010B5002B02DB0260436010BDC4
:102D9000024B034A03483F2101F0BEF9D4780210E8
:102DA00098FD0210F078021010B582B0040004986B
:102DB000059912184B41002B09DB6846FFF7E2FF2B
:102DC000009A019B22606360200002B010BD0122C6
:102DD0005242014BF1E7C046FFFFFF7F10B50029CB
:102DE00008D0037B8B4205D300684B005B18033B84
:102DF000C01810BD024B034A0348682101F08CF94A
:102E00001C7A021074FD0210387A021010B5437B50
:102E10008B4201D1012010BDFFF7E0FF8378002B2A
:102E200001D10020F7E70120F5E770B50400857BAC
:102E3000002D01D1280070BD2900FFF7CFFF437896
:102E4000A373002B00D1E3730023837043700370DE
:102E5000F0E70000F8B506000C001500FFF7BEFF14
:102E60000700002C0DD0002D11D0AC4215D0290048
:102E70003000FFF7B3FF84703B78002B13D13D7017
:102E8000F8BD0A4B0A4A0B486F2101F045F90A4B7D
:102E9000074A0848702101F03FF9084B044A0548E9
:102EA000712101F039F943703D70E9E7807A021031
:102EB00050FD0210387A02108C7A0210987A0210B3
:102EC00070B506000D001400002914D0002A14D09B
:102ED000436880689847002806D022002900300007
:102EE000FFF7B8FF280007E02A0021003000FFF7B5
:102EF000B1FF200000E0100070BD0800FCE70000FA
:102F000070B504000D1E0CD0FFF768FF002383701E
:102F100043700370617B2A002000FFF7D1FF6073CC
:102F200070BD034B034A0448A52101F0F5F8C046E3
:102F3000B07A021064FD0210387A021070B50400F5
:102F40000D1E0FD0FFF762FF00280BD1E17B002997
:102F50000ED1A37B002B03D1E37B002B0DD1A573F6
:102F6000E57370BD084B094A0948F62101F0D4F811
:102F70002000FFF733FF4570EBE7064B034A044898
:102F8000FB2101F0C9F8C046B47A021040FD0210DE
:102F9000387A0210D87A021010B5002907D00368D9
:102FA0001B7B8B4203D3C0680139401810BD034B13
:102FB000034A0448412101F0AFF8C046C07902102D
:102FC0002CFD0210E479021070B505000C00080019
:102FD00000F0CAFC0949200000F00AFCFFF760FA83
:102FE000074B9C466044800068602C75D0231B060C
:102FF0001B786B75034BA400E55070BD15310010B4
:10300000400000348C7C01200A4B1A68EFF31081D9
:1030100072B61368002BFCD0BFF35F8F054B1B68A3
:10302000BFF35F8F00221A6081F3108840BF002039
:10303000002170473C86012010B582B0040000F0EA
:1030400099FB02000B006846FFF79CFE009A019B6B
:1030500022606360200002B010BD70B584B004002F
:1030600016001D0002A8FFF7E7FF029A039B0096D7
:1030700001952000FFF798FE200004B070BD00000D
:10308000F0B583B0070001921D000AAB1C780BABB2
:103090001E78002C0BD000682100FFF7B7FE002837
:1030A00009D0194B194A1A48672101F035F8006810
:1030B000FFF7BBFE0400002C02D1200003B0F0BDDE
:1030C00021003800FFF72AFE019B03604560089B42
:1030D0008360099BC36038682100FFF711FFA0429D
:1030E000EBD1387D019A2B0000F0CAFB051E01D000
:1030F000002E04D00C9B002BDFD01D70DDE738685C
:10310000210000F077FDF5E7EC7A021080FD021057
:10311000E4790210F0B5DE4657464E464546E0B526
:103120008FB00B900021794B8200D458894683E000
:1031300029002000FFF7F2FD804602684368921BD9
:10314000BB41002B09DD43461A685B680B9800F011
:1031500097FB0023984600268AE0002B01D1002A25
:10316000F1D10021584600F03BFD0700A84215D1DF
:1031700043461A685B680892099343469E68DB6879
:103180009846002E10D029002000FFF705FF037895
:1031900099461B021F432761002069E05C4B5D4A92
:1031A0005D488E2100F0B8FF5C4B5A4A5A48922184
:1031B00000F0B2FF2369002B00D177E0BB4219D1A8
:1031C00006980799002342428B4100920193089A86
:1031D000099B0CA8FFF7E8FD0C9A0D9B00210491B8
:1031E0000131039102954146019100962000FFF7BD
:1031F00047FF16E04A4B474A4748A12100F08CFFA1
:10320000069A079B002B01D1002A52D12068290081
:10321000FFF794FE29002000FFF7BEFE037801337C
:103220000370002323616268BFF35F8F13608AF32A
:1032300010880120002861D00CA8FFF7FDFE0C9E2D
:103240000D9F00220023089209936268EFF3108A11
:1032500072B61368002BFCD0BFF35F8F23689B46C8
:103260005D7B002D00D063E70023984600260020F8
:103270006368BFF35F8F00221A608AF31088002E04
:10328000D8D04B461F022F4341463800B047069026
:1032900007916268EFF3108A72B61368002BFCD0B6
:1032A000BFF35F8F079B002B00DA83E7079B002BA0
:1032B000A6DD2369002BA9D0BB4219D10CA8FFF7CA
:1032C000BBFE0C9A0D9B06980799009001910CA8E3
:1032D000FFF76AFD0C9A0D9B0021049101310391C7
:1032E00002954146019100962000FFF7C9FE98E73C
:1032F0000B4B084A0848A42100F00EFF0FB0F0BCA9
:10330000BB46B246A946A046F0BDC0468C7C012013
:10331000147B0210B0FD0210E47902102C7B021025
:10332000387B021010B50C4B5B68002B04D00B48A7
:103330000A21FFF751FC10BD074C094A2068230001
:10334000102100F0B8FB032000F008FA0321200050
:10335000FFF73AFEEBE7C046D00E00203C86012086
:10336000552D001010B5064B5B68002B01D00448AA
:1033700010BD044B044A05485E2100F0CDFEC04656
:10338000D00E0020747B021014FD0210E4790210AC
:10339000F0B5DE4657464E464546E0B58DB00600D0
:1033A00090461F00169B9A46179B994618AB1B78B0
:1033B0000793272302AA9446634400221A7021E04F
:1033C00001003000FFF7E8FD00783CE00698002B94
:1033D0005CD0079B002B59D04946D04704000D0014
:1033E00003000B4359D0002940DB08A8FFF724FE57
:1033F000089A099B0094019508A8FFF7D5FC089B43
:103400009846099F7268EFF3108B72B613685942A1
:103410004B41D9B20691002BF8D1BFF35F8F273310
:1034200002AA9446634404930023039302934B46F9
:1034300001935346009342463B003000FFF720FEC5
:103440000400051EBCD17368BFF35F8F00211960B3
:103450008BF31088002D17D0272302AA94466344CB
:103460001B78002BB2D100022043B0E70023624258
:10347000AB410092019342463B0008A8FFF794FC41
:10348000089B9846099FBDE7012040420DB0F0BC63
:10349000BB46B246A946A046F0BD0698F6E7F0B591
:1034A000C64600B584B00500884616001F000AAB6A
:1034B0001C78FFF757FF0294019700962A004346B5
:1034C000FFF766FF04B080BCB846F0BDF0B5C64655
:1034D00000B505000C1E42D04268EFF3108772B6AB
:1034E0001368002BFCD0BFF35F8FE6B22B689846C1
:1034F00031001800FFF78AFC00282AD02B69A3426C
:1035000013D0240AE4B231002800FFF745FD037808
:10351000A34211D000206B68BFF35F8F00221A60B6
:1035200087F3108880BCB846F0BD0E4B0E4A2C21A4
:103530000E48FF3100F0F0FD3100404600F05AFB2C
:103540000028E8D10A4B084A99210848490000F0B0
:10355000E3FD2B69A342DED100232B61DBE70020D2
:10356000E0E7C046987B0210FCFC0210E4790210F0
:10357000BC7B021010B50400FFF7F4FE2100FFF73A
:10358000A5FF10BD407D704730B587B004000D0029
:10359000EFF30583002B20D106225242D3171219D4
:1035A0006B418B4202D803D1824201D90022002311
:1035B00004A8FFF7E7FB02A8FFF73EFD0298039976
:1035C000049A059B121A8B41002B0BDC08D02000BB
:1035D000290000F0DBF807B030BD144800F07CFE95
:1035E000002AF4D0124A0498059900230093FFF7AB
:1035F00056FF002813DAEAE70E4B1A68EFF3108142
:1036000072B61368002BFCD0BFF35F8F094B1B68A9
:10361000BFF35F8F00221A6081F3108820BF0498E7
:103620000599FFF767FB0028E6D0D0E7C07B0210C2
:10363000093000103C86012000B583B002000B0069
:103640006846FFF70AFD00980199FFF79DFF03B058
:1036500000BD10B5FA2292000023002103F0C8F843
:10366000FFF7EAFF10BD000030B583B005000C0085
:10367000EFF30583002B0FD10B4A00230093FFF7D4
:103680000EFF00280BDD20BFFFF774FF280021008C
:10369000FFF730FB03B030BDFFF72CFBFAE7280043
:1036A0002100FFF727FBF5E70930001010B5002BCC
:1036B00002DB0260436010BD024B034A03483F2116
:1036C00000F02AFDD4780210FCFD0210F078021000
:1036D00070B5EFF305801038EFF3108C72B6194B0C
:1036E0001B68002BFBD0BFF35F8F012213008340C8
:1036F00015494B6315490B60154909780C00C44006
:10370000224213D0104A546A124A8500AA589442A1
:1037100005D3114AAA580E4C9943217007E00A4A72
:10372000031D9B0099589950002200E00022BFF32E
:103730005F8F044B002119608CF31088002A00D0A1
:10374000904770BD280100D0004005403C70054006
:103750008F8A0120208801204C1C002010B5010018
:10376000024A034B1800FEF729FE10BD107C021020
:10377000728A0120044B5B6A034A906A1900536AFB
:103780009942F9D17047C04600400540084B5B6A3A
:1037900001E0074B5B6A8B42FBD301E0044B5B6AA1
:1037A0008B4203D1024B9B6A8342F7D37047C046DA
:1037B00000400540F0B583B004000D00FFF7DAFFCC
:1037C00006000F0022002B0092197B41994202D87B
:1037D00004D1904202D901225242D3176846FFF722
:1037E00065FF00980199FFF7D1FF03B0F0BD00001D
:1037F00070B504000E00EFF3108572B61B4B1B680A
:10380000002BFBD0BFF35F8F002E1CD02000FEF7F3
:1038100007FF174B83420BD019002000FEF71AFF59
:1038200001212000FEF7ECFE0123A340114A1360A2
:10383000114BA400E650BFF35F8F0C4B00221A60BF
:1038400085F3108870BD0C4BA2000021D1500122DD
:10385000A2400A490B7893430B7005492000FFF7FB
:103860002BF800212000FEF7CBFEE4E7280100D072
:10387000D1360010386005404C1C00208F8A012092
:10388000F0B5DE4600B584B00400150001921E00BC
:103890000293FFF76FFF03958E4202D84ED1854207
:1038A0004CD9EFF3108B72B6274B1B68002BFBD063
:1038B000BFF35F8F254A17780125A540EBB23B4344
:1038C0001370234B5D63221D92000199D150214A50
:1038D000A100029888501B6A2B4212D11C4B1B6C12
:1038E0002B4208D00020BFF35F8F174B00221A60D5
:1038F0008BF3108823E0184B184A1948C52100F0B3
:103900000BFCFFF737FF8E4214D802D1039B834292
:1039100010D80E4B1B78BB420ED00D4B1D625D6361
:103920001F222240012393400E4A1360074B1F7051
:103930000120D8E70020D6E70120D4E7012004B019
:1039400080BCBB46F0BDC046280100D08F8A012054
:103950000040054020880120347C0210E0FD021068
:10396000587C021080E200E0EFF3108C72B60B4B33
:103970001B68002BFBD0BFF35F8F01238340084AF5
:10398000136208490A789A430A70BFF35F8F034BAA
:1039900000221A608CF310887047C046280100D0BE
:1039A000004005408F8A012010B5002908D0037B14
:1039B0008B4205D300684B005B18033BC01810BD59
:1039C000024B034A0348682100F0A6FB1C7A021050
:1039D00054FE0210387A0210F8B506000C001500EB
:1039E000FFF7E2FF0700002C0DD0002D11D0AC42F4
:1039F00015D029003000FFF7D7FF84703B78002BEB
:103A000013D13D70F8BD0A4B0A4A0B486F2100F0F4
:103A100083FB0A4B074A0848702100F07DFB084BE6
:103A2000044A0548712100F077FB43703D70E9E7D7
:103A3000807A021040FE0210387A02108C7A02104E
:103A4000987A021070B506000D001400002914D0F9
:103A5000002A14D0436880689847002806D02200C6
:103A600029003000FFF7B8FF280007E02A002100F6
:103A70003000FFF7B1FF200000E0100070BD08002B
:103A8000FCE770B505000023437301338373037BA8
:103A9000C373012406E021002800FFF785FF0134ED
:103AA000E4B24470297BA142F5D82800FFF77CFFDF
:103AB0000023437070BD10B5017342608360FFF74F
:103AC000E0FF10BDF0B5C64600B505000C1E03D1E1
:103AD000200080BCB846F0BDFFF766FF4678002E98
:103AE000F6D031002800FFF75FFF477800239846A3
:103AF000437021002800FFF757FF43464370320010
:103B000021002800FFF79EFF040039002800FFF77E
:103B1000D9FF020021002800FFF794FF0400D7E737
:103B2000F0B5C64600B504000D001700002927D0E7
:103B3000FFF73AFF4378002B28D18378002B2BD155
:103B400001782000FFF7BEFF06008046002F0AD054
:103B5000E17B002926D1A37B002B03D1E37B002B43
:103B600025D1A573E5734346002B26D129002000FB
:103B7000FFF71AFF00234370300080BCB846F0BD49
:103B8000114B124A1248382100F0C6FA114B0F4A65
:103B90000F483A2100F0C0FA0F4B0C4A0C483B2169
:103BA00000F0BAFA2000FFF7FFFE4570D3E70B4B99
:103BB000064A0748422100F0AFFA31002000FFF723
:103BC000F3FE00238370D1E7987C02102CFE0210D4
:103BD000A07C0210D87C0210007D0210D87A02105E
:103BE00070B504000A00457B2900FFF799FF607358
:103BF000280070BD70B506000C1E40D0437B8B4280
:103C000007D0FFF7D1FE05008178002906D10020FA
:103C100036E00121FFF7E4FF012031E03000FFF73B
:103C2000C3FE0178A1420DD03000FFF7BDFE417800
:103C3000A1420AD00029F7D1124B134A13486B3125
:103C400000F06AFA6B78037001E06B784370002330
:103C5000AB706B70012221003000FFF761FF0200A2
:103C6000717B814205D03000FFF7ECFE70730120BC
:103C700006E0074B044A0548712100F04DFA002088
:103C800070BDC0469CD2021014FE0210A07C02102F
:103C9000247D0210F8B5DE4657464E464546E0B54F
:103CA00006000F0015000A9A934250D31A0E92464E
:103CB0001B0298460A9A00234046514601F0D4FC64
:103CC00081467400A419A4002F4B9C466444636889
:103CD000834200D26060331FDBB29B46012B3CD98C
:103CE000C0239B012343802212011A60274BB2009C
:103CF000D158002907D0586901F078FC0130430001
:103D00001B18033BFDD26D0123685D40E0222A4071
:103D100080235B0123431A605A46012A28D9802355
:103D20009B012343802212011A604B4663604A467E
:103D300000234046514601F097FC144BB6009851C1
:103D40000120F0BCBB46B246A946A046F8BD104BC8
:103D5000104A1148332100F0DFF9012FC0D1C023F0
:103D60009B01234303221A60A368DB07FCD5CAE743
:103D70002168794003220A401A60A3680125BD40EA
:103D80001D42FAD0CBE7C04600800040AC4D002079
:103D9000447D021060FE0210587D021030B583B0E1
:103DA0000C2000F011F9FEF7E9FA00280DD00023ED
:103DB00004E02E4A99002E4888500133092BF8D987
:103DC0002A4B2C4A5A6203B030BD2B4B00229A6713
:103DD00000F06CF9294B01221A60274B5B6C012B18
:103DE000FBD1274B03221A60234B9B6B012BFBD18A
:103DF000013300930433234A0121234800F054F88F
:103E000005230093214A0121214800F04DF8214B60
:103E10000093002202210420FFF73CFF1E4D009575
:103E20002B00002201210520FFF734FF104C0094E5
:103E30002300002200210720FFF72CFF009423001D
:103E4000002200210820FFF725FF0A4B00932300E2
:103E5000002200210920FFF71DFF00952B00002202
:103E600000210620FFF716FFADE7C046AC4D00204D
:103E7000006CDC021BB70000008000403CB000403A
:103E800030B00040002F685900800240008C864707
:103E900000C00240001BB70040597307014B80006F
:103EA000C0587047AC4D0020F0B5C64600B50400C0
:103EB0000E0017001D00374801F098FB8046364B76
:103EC000FA18364B9A4239D80100380001F08EFBBF
:103ED0000200103A98235B009A4235D86B1E062BDD
:103EE00038D8069B013B062B34D83F09474537D3CA
:103EF0002D04069B1B031D432368002B36DB284B38
:103F00009C4244D080235B01264A1360264A1360FA
:103F1000264A926819009143FAD12660A060221DBA
:103F2000C0239B01134321221A602268002AFCDA75
:103F3000E56008221A6080BCB846F0BD1C4B1D4AE3
:103F40001D48112100F0E8F81C4B1A4A1A481921A3
:103F500000F0E2F81A4B174A17481C2100F0DCF871
:103F6000184B144A1448232100F0D6F822683F2346
:103F70001340B342C3D1A3681B051B0D8342BED1BE
:103F8000E368EE22D2021340AB42B8D1D3E78023DC
:103F90009B01B9E7001BB70080E84BD380F8A9323A
:103FA00000C0024000E0004000F0004000C00040BF
:103FB0009C7D021070FE0210FC7D0210387E021003
:103FC000547E0210A07E021080239B000343014A0E
:103FD000D362704700800540024B1A68024B5A605A
:103FE0007047C0464C7C01200080054010B5174B3F
:103FF0008022D2051A60164B164A1A6000290AD090
:10400000154BE022D2041A60002809D1124B8022FD
:1040100012061A6010BD0D4BE022D2041A60F3E7BD
:1040200043011B1A9B00181800010C4B18608023D9
:104030005B04984202D3094B094A1A60FFF7CCFF90
:10404000054B8022D2051A60E4E7C04600B0054067
:1040500008200140FCFF010000A005404C7C01202D
:10406000FFFFFF0010B5030010000C4A8024E40598
:104070001460002B0DD001221343094A094CD4616E
:10408000094C5C401462516293620021FFF7AEFF5D
:1040900010BD034B0022DA61F7E7C04600B00540CF
:1040A00000800540D3C007B02D3FF84F064BAA2231
:1040B00012011A602F22DA60044B054A1A60024B83
:1040C0005B68002BFBDA7047004002400060024052
:1040D00000B0FA0000BEFDE703000A4A1268002A99
:1040E00008D0084A1068C318074A9A4206D3054AFE
:1040F00013607047034A05491160F2E7012040420E
:10410000F7E7C046246E012000000420948A0120B5
:1041100010B5FFF7DFFF000030B583B00D001900C8
:10412000002A0BD0074B084C019200932B00020091
:10413000200002F0CFFE0120FFF7CCFF034B1A0056
:10414000F1E7C046BC7E0210CC7E021078750210EA
:1041500070B52B4B2B4A1A602B4B2C4A1A602C4BF8
:104160009A682A4B9343FAD12A4C01E008CC98472D
:10417000294B9C42FAD3FFF711FE234B274A1A60C2
:10418000234B9B68DB43DB01FAD1254B40229A6726
:104190005A671A67DA66234C09E0234B234A2448FE
:1041A0008721FFF7B9FF2000FEF773FD0834214B8C
:1041B0009C4209D22368002BF5D0012BEDD12000C1
:1041C000FEF774FD0834F2E71B4DA9681B4CC022B2
:1041D000200002F069FCAC60EFF30583002B00D0F7
:1041E00000BEFEF74DF9FEF7B7FCFFF79BF8144C45
:1041F00001E008CC9847134B9C42FAD370BDC046EF
:1042000000E00040BFCDFBFE00F00040FE7F3C0020
:1042100000C00040F414002004150020FFFFFF013F
:1042200000F00140EC140020FC7E021094FE02100D
:104230001C7F0210F414002000ED00E000000020BC
:10424000041500200C15002010B5002B02DB0260C5
:10425000436010BD024B034A03483F21FFF75CFF58
:10426000D47802107CFE0210F078021010B582B0F3
:104270000400FFF77FFA02000B006846FFF7E4FF37
:10428000009A019B22606360200002B010BD000014
:10429000D0B582B0041E18D06846FFF7E7FF009E35
:1042A000019F0B4B1A685B68B61A9F41094A0023AD
:1042B0003000390001F0C0F920606160054A002338
:1042C0003000390001F0B8F9A260002002B0D0BD82
:1042D0007016002040420F000FB400B583B00848AC
:1042E00002F0C8FD049B002B07D005A9019118001E
:1042F00002F0D0FD034802F0BDFD0120FFF7EAFE09
:104300005C7F02109C73021010B50148FFF7E4FFB8
:104310006C7F02109A4200D288547047704710B5E3
:10432000002802D00B684968984710BD01000020A2
:1043300007E083001B185B00501C08601078C01851
:1043400030380A681378303BDBB2092BF1D970475B
:10435000F0B5DE4657464E464546E0B583B0934637
:104360001F000C9B9A460D9C0E9B99460F9B9B072A
:1043700003D0B8460F00060022E00192A34688460B
:104380004E46B9460700B44207D2551C4B4641463B
:104390002020B84701342A00F5E73D004F465C462F
:1043A000019B9B46B1464646B84637002E0007E0C3
:1043B000013C551C5346185D43463900B0472A005E
:1043C000002CF5D135003E0047460F9B9B0707D4D4
:1043D000100003B0F0BCBB46B246A946A046F0BDF3
:1043E000B0464E46B9462F005D46531BB342EFD24E
:1043F000541C4B4641462020B8472200F5E7F0B553
:10440000CE46474680B585B0944698460C9D0D9C97
:104410000EAB1B789946109A119B129EB7071CD4BD
:10442000002B0CD0F7070AD54F46002F02D10C37CE
:10443000374204D0013B02E030272F55013494422B
:1044400001D21F2CF8D9F70707D59C4205D21F2CA3
:1044500003D830272F550134F5E7F70612D5770535
:1044600005D4002C03D0944221D09C421FD00F9A37
:10447000102A32D00F9A022A37D01F2C0AD83022A5
:104480002A5501341F2C05D84A46002A33D02D2244
:104490002A550134039602930194009543466246DF
:1044A000FFF756FF05B0C0BCB946B046F0BD621E6E
:1044B000012C10D00F9F102F0BD014000F9A102A30
:1044C000D8D1B206D6D51F2CD4D858222A550134BB
:1044D000D3E7023CCBE71400C9E7B206EED41F2CA9
:1044E000ECD878222A550134C7E71F2CD2D8603285
:1044F0002A550134C1E7720703D52B222A5501340E
:10450000C8E73207C6D520222A550134C2E7F0B5E4
:10451000DE4657464E464546E0B593B081468A464C
:10452000089209931CAB10CB1B789B461E9D219BC8
:104530009846002C03D1102342469A43904680238C
:10454000DB0046461E4042461A4212D0002C22D0C2
:1045500000260EE03033D9B2771C0AAB99552900FA
:10456000200001F043F8AC4216D31F2F14D83E00B0
:1045700004002900200001F039F8CBB2092BE9D959
:104580004246920605D54121C918C9B20A39C9B2B5
:10459000E2E76121F8E7270043460693209B059355
:1045A0001F9B049303955B46029301970AAB00930C
:1045B000099B089A51464846FFF721FF13B0F0BC0B
:1045C000BB46B246A946A046F0BDF0B5DE4657460A
:1045D0004E464546E0B597B00A900B910C929A462C
:1045E000209B9946219F22AA13789B46249B0993DE
:1045F000259C289B98464A463A4302D11032934361
:1046000098468022D20045461540434613420AD0C0
:104610004A463A4341D000252E0053460D934D465D
:10462000099B9A461BE02E0053460D934D46099B6D
:104630009A4614E03033DAB2731C99460EAB9A55A1
:10464000524623002800390001F00EF8BC4226D85B
:1046500019D04B461F2B1CD84E4605000F00524662
:1046600023002800390000F0FFFFD3B2092BE1D965
:104670004246920605D54122D218D2B20A3AD2B2A7
:10468000DAE76122F8E7AA45E3D94E460D9B9A4640
:1046900008E04E460D9B9A4604E0002602E04E4696
:1046A0000D9B9A4643460693279B0593269B0493AE
:1046B000099B03935B46029301960EAB009353460E
:1046C0000C9A0B990A98FFF79AFE17B0F0BCBB46FC
:1046D000B246A946A046F0BDF0B5DE4657464E4666
:1046E0004546E0B591B0804689460C929A461A9CA0
:1046F0001B9D22002B002000290001F038FA002821
:1047000000D0ECE001225242D44B2000290001F0FD
:1047100029FA002800D0E2E001225242D04B2000CA
:10472000290001F009FA002800D0D8E00022002377
:104730002000290001F000FA002800D0E4E00694EF
:1047400007958023DB001E9A1A400D921E9A1A428A
:1047500001D106231C930698079902000B000892CA
:10476000099303000A00024300D1D9E0080D400577
:10477000400DBC4EB44660440A03120B1E00BA4BF7
:1047800013431F0001F006FAB84AB94B01F08DF946
:10479000B84AB94B01F06AF9089009910022B74B69
:1047A0003000390001F05DF9B54AB64B01F07DF9F2
:1047B00002000B000898099901F058F901F002FA7B
:1047C000834601F0E7F906000F00AF4AAF4B01F056
:1047D0006CF90022AE4B01F049F901F0F3F90890B1
:1047E000AC4AAD4B3000390001F05FF906000F0014
:1047F000089801F0CFF9A94AA94B01F056F9020037
:104800000B003000390001F02CF906000F00020007
:104810000B0001F04AF90A900B91089BA14A9446BB
:10482000634400210022089109921B05099300238B
:10483000089332003B003000390001F017F90E9068
:104840000F9132003B0000208021C90501F009F9D9
:1048500006000F000022944B0A980B9901F00BF907
:104860000022924B01F002F902000B000A980B990A
:1048700001F001F900228E4B01F0F8F802000B0064
:104880000A980B9901F0F7F802000B00300039008C
:1048900001F0ECF802000B000E980F9901F0EBF814
:1048A0000022714B01F0E2F8089A099B01F0FDF833
:1048B00006000F0008960997069A079B01F052F927
:1048C00000282FD001235B429C46E3440022774B13
:1048D0003000390001F0CFF80890099122E01E9BCA
:1048E00004931D9B03931C9B0293009401955346D4
:1048F0000C9A4946404600F0FFF811B0F0BCBB46A8
:10490000B246A946A046F0BD0021002206910792BA
:10491000069480231B069C46AC446346079310E72D
:1049200000239B465B466333C62B20D804261E9B80
:104930001B0528D5089A099B190011430FD05D4A21
:104940005D4B0698079901F005F900287AD00022FE
:104950005A4B0698079901F0EFF8002872D01C9B7B
:104960005B4506DD5A469B1A013B1C9303E0052676
:10497000DDE700231C938023DB001E9A1A431E925E
:10498000002600239B461D9B9E4265D29F1B02234F
:104990001E9A1A400A921E9A134202D0002E00D08C
:1049A00000275B46002B07D0089A099B06980799B9
:1049B00001F061F8069007910022002320002900F1
:1049C00001F0BAF8002800D07CE03D4B1E9A13405D
:1049D000049303971C9B0293069B079C00930194EE
:1049E00053460C9A4946404600F086F8002E00D106
:1049F00083E71E9B9B0671D54525441C5346020048
:104A000049462800C0475A46D317D2185A400523B2
:104A10000593013E0496002303930A3302935B46F9
:104A2000DB0F019300925346220049464046FFF7B0
:104A30006EFD0A9B002B00D15FE7020047460C9EEB
:104A40001D9D53E01C9B002B9DD00D9B002B9AD0ED
:104A50001C9B013B1C9396E7002798E7FFFFEF7F25
:104A6000FFFFEFFF01FCFFFF0000F03FFB799F50CD
:104A70001344D33FB3C8608B288AC63F0000F83F79
:104A800061436F63A787D23F71A379094F930A40AF
:104A90000000E03F1655B5BBB16B0240EF39FAFE9E
:104AA000422EE63FFF03000000002C40000024409F
:104AB000000018402D431CEBE2361A3F80842E4143
:104AC000FFF7FFFF069C079D2200290080200006BB
:104AD000844661440B000692079376E765258CE7D0
:104AE000541C534649462020B8472200931BAB4232
:104AF000F6D3100001E7C046F0B5DE4657464E46F5
:104B00004546E0B595B00690079193469946209F9B
:104B10001E9A1F9B1000190001F029F8002831D1BE
:104B200001225242BF4B1E981F9901F005F8002840
:104B300037D101225242BC4B1E981F9901F012F846
:104B400000283DD10022B94B1E981F9901F00AF8A8
:104B5000002850D10022B64B1E981F9900F0ECFFA0
:104B6000002848D1002200231E981F9900F0E4FF7E
:104B7000002850D100239846229B5B0500D4B6E064
:104B8000002458E0229B0393219B0293032301936B
:104B9000A84B00934B465A4607990698FFF7D8FB57
:104BA0000EE1229B0393219B029304230193A24BCA
:104BB00000934B465A4607990698FFF7C9FBFFE05A
:104BC0000423229A1A4022990B4210D09B4B002AB0
:104BD0000FD004222299039121990291019200930E
:104BE0004B465A4607990698FFF7B2FBE8E0944B0C
:104BF000EDE70322EEE7229B0493219B03930297A8
:104C00001E9B1F9C009301944B465A460799069899
:104C1000FFF762FDD4E01E9A1F9B0020002100F0E8
:104C200020FF1E901F9101239846A5E70CAB302270
:104C30001A55013F01341F2C01D8092FF6D81E98B0
:104C40001F9900F0BFFF050000F0A4FF02000B0059
:104C50001E981F9900F005FF7A4BFA009B181A68FE
:104C60005B680A920B9300F020FF0890099100F016
:104C7000CDFF060000F08AFF02000B00089809999A
:104C800000F0EFFE0890099100226F4B00F06AFFE0
:104C900000282ED00136300000F078FF02000B0013
:104CA0000A980B9900F04EFF002801D0013500262C
:104CB000002F2CD1280000F06DFF02000B001E9881
:104CC0001F9900F0CEFE06000F0000225E4B00F0A0
:104CD00033FF002846D100225B4B3000390000F042
:104CE00041FF00283ED1EB073CD501353AE00627CD
:104CF00046E70022544B0898099900F01DFF002850
:104D0000D6D1002E01D0F307D2D50136D0E7AA467E
:104D10001F2C11D8013F0A21300000F067FC651CF0
:104D200030310CAB19550A21300000F05FFC092E20
:104D30000ED906002C00EBE755461F2C0CD87B1E25
:104D4000002F09D00CAA302111551F000134F4E7BF
:104D50002B0055461C00F0E71F2C03D80CAB2E226D
:104D60001A5501341F2C10D80A21280000F016FC17
:104D7000661C30310CAB19550A21280000F00EFCDE
:104D8000051E01D03400EDE734000323229A1340BE
:104D9000012B1CD01F2C06D84346002B32D00CAB65
:104DA0002D221A550134229B0393219B02930194D7
:104DB0000CAB00934B465A4607990698FFF7C8FA82
:104DC00015B0F0BCBB46B246A946A046F0BD219B3B
:104DD000002B13D04346002B02D10C3313420FD0CB
:104DE000219B013B2193190003E00CAB30221A55A3
:104DF00001348C42CED21F2CF7D9CBE72199F8E7AA
:104E00002199F6E7229B5B0704D50CAB2B221A55A0
:104E10000134C8E7229B1B07C5D50CAB20221A55CD
:104E20000134C0E7FFFFEFFFFFFFEF7F65CDCD410E
:104E300065CDCDC1887F02108C7F02107C7F02106F
:104E4000847F0210400003100000E03FF0B5DE4612
:104E500057464E464546E0B593B08246884693464F
:104E60001193002900D10DE300255646119B1878B7
:104E7000002800D109E3252809D06C1C5B462A00D4
:104E80004146B047119B013311932500EEE70133F2
:104E90001193002720E001231F43013211920124C6
:104EA00018E002231F4301321192012412E004236F
:104EB0001F430132119201240CE008231F430132E9
:104EC0001192012406E010231F43013211920124A4
:104ED00000E00024002C09D0119A1378203BD9B2AD
:104EE0001029F6D88B00C849CB589F46119B1A78D9
:104EF0001300303BDBB2092B10D92A2A13D00B94B4
:104F0000119B1A782E2A1ED0119A1378683BD9B2B9
:104F1000122959D88B00BD49CB589F4611A8FFF7DD
:104F200005FA0B90ECE71C9B1A1D1C921B68002BCA
:104F300004DB0B93119B01331193E1E7022217432A
:104F40005B420B93F6E78022D20017435A1C119262
:104F50005A781300303BDBB2092B0BD92A2AD3D164
:104F60001C9B1A1D1C921C68002C08DB119B013332
:104F70001193C9E711A8FFF7D9F90400C4E7002489
:104F8000F4E780235B003B43511C119151786C295D
:104F900001D01F0018E0C0239B001F430232119272
:104FA00012E080233B43511C11915178682901D0B4
:104FB0001F0009E0C0231F430232119204E0802346
:104FC0005B001F4301321192119B1878672818D893
:104FD000252800D24CE20300253BDAB2422A00D950
:104FE00046E293008A4AD3589F4680239B001F4382
:104FF00001321192E8E780235B001F4301321192D6
:10500000E2E7782800D933E2692800D230E20200D2
:10501000693AD2B2012393407E4A134211D11A0653
:1050200000D500E25B0500D422E21C9B1A1D1C92F5
:105030001B689A46002C00D0B2E10122524253462E
:105040008EE16F280ED006D858283DD0622804D1B2
:1050500002239C4608E0782839D010239F43063B62
:105060009C4601E008239C46582833D0692803D089
:10507000642801D00C2297437A0501D50122974379
:1050800069282AD0642828D0BA0500D59FE0FA05FF
:1050900000D5C1E07A0600D4D3E01C9A111D1C9102
:1050A0001168FF220A4005970B9B04930394634603
:1050B00002930023019300925B462A004146300090
:1050C000FFF725FA050027E010239C46CCE71023C4
:1050D0009C46C9E720221743C8E7BA0520D4FA0541
:1050E00050D47A0666D51C9A111D1C911168FF22B6
:1050F0000A40D0171118414005970B9B0493039465
:1051000063460293D20F019200915B462A0041460A
:105110003000FFF7FCF90500119B01331193A5E660
:105120001C9A073207218A43110008311C9111682B
:1051300053689946DB170C930D930C9A0D9B100046
:1051400048400E904A4653400F930E980F990C9A80
:105150000D9B801A99410E900F9108970B9B079316
:10516000069463460493002305934B46DA0F02929C
:10517000009001915B462A0041463000FFF725FA76
:105180000500C9E71C9A111D1C911268D01711184F
:10519000414005970B9B0493039463460293D20FFF
:1051A000019200915B462A0041463000FFF7AFF9BB
:1051B0000500B1E73A0605D51C9A111D1C91002384
:1051C000D25E96E71C9A111D1C91126891E71C9AF9
:1051D000073207218A43110008311C9108970B9B65
:1051E0000793069463460493002305930293536840
:1051F0001268009201935B462A0041463000FFF797
:10520000E4F9050088E7C046A4FE0210E8FE02109B
:1052100034FF0210419000001C9A111D1C9105974B
:105220000B9B04930394634602930023019313683A
:1052300000935B462A0041463000FFF768F90500FD
:105240006AE73A0606D51C9A111D1C9112681204D1
:10525000120C28E71C9A111D1C91126823E746289E
:1052600019D01C9B0733072293431A0008321C9263
:1052700004970B9A039202941A685B680092019358
:105280005B462A0041463000FFF736FC0500119BC3
:1052900001331193EAE520231F43E2E7672801D099
:1052A000472802D180231B011F43452801D04728EE
:1052B00001D120231F431C9B0733072293431A006D
:1052C00008321C9204970B9A039202941A685B6846
:1052D000009201935B462A0041463000FFF7FCF93B
:1052E0000500119B01331193C0E502231A003A40D7
:1052F00091463B421DD001241C9B1A1D1C926F1C21
:1053000018785B462A004146B0474B46002B14D123
:10531000119B013311933D00A8E5571C5B464146A4
:105320002020B04723003A005C1C9D42F5D81500B0
:10533000E2E701232A000B9DF6E73A00B1460B9EF7
:1053400006E0571C5B4641462020C8472C003A0027
:10535000651CA642F5D817004E46D9E701330A006E
:105360001978002902D0511E002AF7D152469B1A03
:105370008022D200390011408946174202D0A34250
:1053800000D9230002221100394010913A4209D07D
:105390002A00250057469A4633004E46994621E09A
:1053A00022004CE62A004546A04606E0541C5B4617
:1053B00029002020B0473B0022005F1C0B99994236
:1053C000F4D84446A8463B00250057469A46330089
:1053D0004E46994606E01D000137541C5B46414687
:1053E000C84722003878002804D0002EF4D06B1E65
:1053F000002DF0D1150053464E46109A002A03D1D5
:10540000119B0133119331E50B9F2A0006E0551CD7
:105410005B4641462020B04723002A005C1C9F4287
:10542000F5D81500ECE721233B431C9A111D1C9174
:10543000126805930823049303940833029300230E
:10544000019300925B462A0041463000FFF75FF867
:105450000500119B0133119308E56C1C5B462A0083
:1054600041462520B047119B013311932500FDE4EF
:105470006C1C5B462A004146B047119B01331193D7
:105480002500F3E40A4B9A46EEE4B2465D450DD39F
:105490005B465A1E5B4641460020D047280013B0A9
:1054A000F0BCBB46B246A946A046F0BD2A00F1E7D3
:1054B0001D4300100EB430B584B0010007AC08CC19
:1054C00003940122054D009452422800FFF7BEFCD0
:1054D00004B030BC08BC03B01847C04615430010E8
:1054E0000CB430B585B00A0008AC08CC0394054D67
:1054F000009401002800FFF7A9FC05B030BC08BCEF
:1055000002B018471543001000B585B00290039112
:1055100001210448009313004A4202A9FFF796FCB8
:1055200005B000BD1F43001001480421014B18477E
:10553000000F002065550010014B9B6818470000C4
:10554000000F002010B5010018231B8814221088BA
:10555000984710BD10B5010018231B88162210882B
:10556000984710BDF0B5C64600B507000E000025EF
:105570000123984600E00135B5420AD2AC003C193F
:105580002068FFF7DFFF20600028F4D10023984651
:10559000F1E7404680BCB846F0BD0000124A936F68
:1055A0009B0815D29066D166002905D0FFE7FFE77A
:1055B000FFE7516F106F704704B580210906C217CD
:1055C0005140002800D0C84321F0FAFD002104BD5D
:1055D000F0B5146E556E576F166FFFF7E3FF146644
:1055E000556657671667F0BD000000D0114A936FEB
:1055F0009B0813D210665166002905D0FFE7FFE72C
:10560000FFE7516F106F704704B5002801D00020EC
:10561000C04321F0D5FD002104BDC046F0B5146E95
:10562000556E576F166FFFF7E5FF1466556657679F
:105630001667F0BD000000D094464A4A926F920867
:10564000624601D228E0C046F0B5464E346E756E13
:10565000776F366F00F020F89446424A146655661C
:10566000576716676246F0BD94463E4A926F9208AD
:10567000624601D254E0C046F0B53A4E346E756EC3
:10568000776F366F00F04CF89446364A14665566CC
:10569000576716676246F0BD002B24DB11D0002946
:1056A0003EDA00B5C943404200D1013100F038F87C
:1056B000C943404200D10131DB43524200D10133A2
:1056C00000BD002AEBD1002801D1002905D000201F
:1056D000C90FC90701D1C043410800B521F048FDF9
:1056E0000022002300BD00B500290ADBDB43524243
:1056F00000D1013300F014F8C943404200D1013118
:1057000000BDC943404200D10131DB43524200D1C8
:10571000013300F005F8DB43524200D1013300BDF4
:10572000002923D1002B18D1002A0CD0BC460D4FE4
:1057300038667A6600210023FFE7FFE7FFE77A6F0C
:10574000386F67467047002801D00748010000B550
:1057500021F00EFD0022002300BD02000B000020FE
:1057600000217047000000D0FFFFFFFF002B00D09A
:10577000BFE0130C28D1002AE7D080B4114F39665E
:105780007A66FFE7FFE730B4040C7B6F396F1B04C8
:1057900023433B667A66FFE7FFE7FFE7C04684B234
:1057A0007B6F3D6F1B0423433B667A66FFE7FFE791
:1057B000C04600232C042D0C7A6F386F0019694104
:1057C000B0BC7047000000D0F0B594460025140E20
:1057D00001D112020835140F01D112010435940FC2
:1057E00001D192000235D40F01D152000135D40B02
:1057F0000134254F7C66254C3C660E0C93B2FFE7C6
:10580000FFE7FFE73C6F6643360C7703BE46734302
:10581000DF0B5B04C01AB941130C7343DB18C91AC0
:10582000CE086643360CB64493B273431F0F1B0178
:10583000C01AB941130C73431F0B1B05C01AB941A1
:10584000860D8F023E436643360C092D24DB520A37
:105850007243801A7703460A6643360C16235B1B95
:10586000DE40DF40BF1964466643821B7046043544
:1058700006330100D940A840C01900D30131A2422B
:1058800006D20023F0BD0000000000D0FFFFFFFFA4
:10589000121B0130F3D3F1E709277F1BFE4064465A
:1058A000A2B27243801A00D20139220C7243130C47
:1058B0001204821A99410B00704604351337010017
:1058C000F940A840801900D30131002B02D1A24237
:1058D0000AD2F0BD013000D30131121BFAD2013BD4
:1058E000F8D1A24200D2F0BD013000D30131121B29
:1058F000F7E7F0B51C0C00D080E00CB400251C0AC2
:1059000004D11B02160E3343120208351C0B04D1BE
:105910001B01160F3343120104359C0B04D19B006D
:10592000960F334392000235DC0B02D192185B4193
:1059300001351C00971864410134464F7C66464C83
:105940003C660E0CFFE7FFE7FFE7C0463C6F66438F
:10595000360C7703BE4697B27743C01B00D201399D
:10596000C01B00D201399FB27743C91BC91B170C5A
:1059700077437E04FF0B801BB941CE086643360C8B
:105980000C2D33DBB644120B1F053A431B0B97B2A9
:105990007743C01B00D201399FB27743C91B170C54
:1059A00077433E043F0C801BB941860D8F023E4376
:1059B000664329277F1BFE400C3D7746AF40BF1949
:1059C00030BCA2B2ABB272437343801A9941220C2D
:1059D0007243130C1204801A994102000B00013724
:1059E000001BA941F9D2781E0021F0BD0C277F1BB6
:1059F000FE4077467F0BAF40FF19E0E700245D1CB7
:105A000007D0144F7D663966FFE7FFE7FFE7FFE742
:105A10003C6F95B29EB265436643401BB141150C85
:105A20001E0C6543664336042F0C3E432D04401B79
:105A3000B141994204D202000B0020000021F0BDC8
:105A400001D19042F7D3801A994101349942F2D39F
:105A5000F6E70000000000D0FFFFFFFF4840414094
:105A6000484018B4134B5B68019308BD18B4114B40
:105A70001B68019308BD94460F4A926F920805D2A5
:105A8000624618B40B4BDB68019308BD0A4AF0B5B7
:105A9000146E556E576F166F6246FFF7F2FF064A97
:105AA0001466556657671667F0BD18B4014B9B68BE
:105AB000019308BD407D0120000000D0FFB550409B
:105AC0004240504059404B40594000E0FFB5154F0F
:105AD0004C00640D03D0BC4204D10C0314D8002048
